:020000040800F2
:100000000007002401001008F9141008212000083E
:100010000D001008B5031008F522000800000000CC
:10002000000000000000000000000000ED151008B6
:10003000B703100800000000232000081521000865
:100040001B0010081B0010081B0010081B001008E4
:100050001B0010081B0010081B0010081B001008D4
:100060001B0010081B0010081B0010081B001008C4
:100070001B0010081B0010081B0010081B001008B4
:100080001B0010081B0010081B001008F9050008D1
:100090001B0010081B0010081B0010081B00100894
:1000A0001B0010081B0010081B0010081B00100884
:1000B0001B001008991610081B0010081B001008E0
:1000C0001B0010081B0010081B0010081B00100864
:1000D0001B001008851D10081B0010081B001008CD
:1000E0001B0010081B001008000000001B00100877
:1000F0001B0010081B0010081B0010081B00100834
:100100001B0010081B0010081B0010081B00100823
:100110001B0010081B0010081B0010081B00100813
:100120001B0010081B0010081B0010081B00100803
:100130001B0010081B0010081B0010081B001008F3
:1001400000000000000000000000000000000000AF
:100150001B0010081B0010081B0010081B001008D3
:100160001B0010081B0010081B0010081B001008C3
:100170001B0010081B0010081B00100800000000E6
:100180001B0010081B0010081B0010081B001008A3
:100190001B0010081B0010081B0010081B00100893
:1001A0001B0010081B0010081B0010081B00100883
:1001B0001B0010081B0010081B0010081B00100873
:1001C0001B0010081B0010081B0010081B00100863
:1001D0001B0010081B0010081B0010081B00100853
:1001E0001B0010081B0010081B0010081B00100843
:1001F0001B0010081B0010081B0010081B00100833
:100200001B0010081B0010081B0010081B00100822
:100210001B0010081B0010081B0010081B00100812
:100220001B0010081B0010081B0010080000000035
:100230001B0010081B001008000000001B00100825
:100240001B0010081B0010081B0010081B001008E2
:100250001B0010081B0010081B0010081B001008D2
:100260001B0010081B0010081B0010081B001008C2
:100270001B0010081B0010081B00100800000000E5
:100280001B001008000000001B0010080000000008
:10029000000000001B001008DFF80CD000F0E6F8AA
:1002A0000048004799260008000700242DE9F05F68
:1002B0000546002092469B468846064681464024D5
:1002C0001BE02846414647462246FFF0E6FE5346DD
:1002D0005A46C01A914110D311461846224600F0E2
:1002E0002CF82D1A67EB01084F4622460120002109
:1002F00000F023F817EB00094E41201EA4F1010481
:10030000DFDC484631462A464346BDE8F09FF0B45C
:10031000CA17CB0F50405140C61841F100054FEAB3
:10032000C372314628004FF0960303D0B623F0BCC9
:10033000FFF0CCBE30460021F9E7202A04DB203A4A
:1003400000FA02F1002070479140C2F1200320FA28
:1003500003F31943904070472DE9FE4F81EA0304EF
:1003600004F0004421F0004100944FF0000B23F012
:10037000004350EA01045ED052EA03045BD0C3F3A9
:100380000A54C1F30A552C44A4F2F3340194A0FB9F
:100390000254C1F3130141F48011C3F3130343F476
:1003A000801301FB024400FB034E840A970A44EACF
:1003B000815447EA8357A4FB076802958D0A05FB21
:1003C00007854FEA932C04FB0C542705029D4FEA46
:1003D000065847EA1637B5EB08056EEB070C870E93
:1003E000920E47EA811742EA8312A7FB0201B6EB9D
:1003F0000B0164EB00042B0D43EA0C335E1844EB55
:100400001C50DA465146E7FB0201C5F313044FEADC
:100410000B3343EA14534FEA0432019C43EA0603C8
:10042000A4F10C040294009CCDE900B400F051F852
:1004300003B0BDE8F08F00200146F9E7C1F30A528E
:10044000C1F3130140F2FF3341F480119A4202DA02
:1004500000200146704740F233439A42A2F23342F1
:1004600002DC5242FFF019BEFFF767BF064C074D92
:1004700006E0E06840F0010394E807009847103474
:10048000AC42F6D3FFF70CFF0C3100082C3100080A
:10049000202A06DBCB17203A41FA02F043EAE07348
:1004A00006E041FA02F3D040C2F120029140084335
:1004B0001946704710B5141E73F1000408DA401C89
:1004C00041F1000192185B411A4301D120F0010073
:1004D00010BD2DE9F04D92469B4611B1B1FA81F263
:1004E00002E0B0FA80F220329046FFF726FF044681
:1004F0000F4640EA0A0041EA0B0153465A460843B8
:1005000013D0114653EA010019D0C8F140025046F9
:10051000FFF0C3FD05460E46504659464246FFF7DA
:100520000CFF084305D0012004E020463946BDE811
:10053000F08D0020054346EAE0762C4337430A98C5
:100540006305E40AA0EB08000022FD0A44EA4754D0
:100550000A3002D500200146E9E70105101969417A
:10056000DDE9084500196941BDE8F04DA2E700004A
:10057000F0B5BFF34F8FBFF36F8F1D4900200860A8
:10058000BFF34F8FBFF36F8F1A4C216841F40031D6
:100590002160BFF34F8FBFF36F8F16497031086032
:1005A000BFF34F8F081F006843F6FF75104E1036DB
:1005B000C0F34E31C0F3C90305EA4112184642EABE
:1005C00080773760401EFAD2491EF5D2BFF34F8FB5
:1005D000206840F480302060BFF34F8FBFF36F8FEF
:1005E00003484C30016841F004010160F0BD000097
:1005F00050EF00E014ED00E00148FFF0C9BF00003B
:10060000D80100242DE9F04389B01D4616460F4657
:1006100080461F48DDF8409000F0A0F91C480024F7
:100620001C4901600421C0E90249047444748474C3
:1006300044638463C0E9076501254164C0E90F454F
:1006400004658465C0E91745C0E91941C0E905871B
:1006500000F17EF918B1012009B0BDE8F083022055
:1006600000946946CDE90140CDE90354084805945A
:10067000FFF04BFF08B10220EEE7054800F021FA39
:10068000034800220121FFF0FBFE0020E4E7000008
:10069000D801002400A0004010B5416BC16602687B
:1006A00052F8844F4FF6FC739C4344EA8101116079
:1006B000016851F8842F048F22F47F0242EA044239
:1006C0000A60826BC16E114401670268D2F88840EB
:1006D0009C4344EA8101C2F88810016851F8882FD0
:1006E000848F22F47F0242EA04420A60C26B016FE7
:1006F00001EB420141670268D2F8A0409C4344EA02
:100700008101C2F8A010016851F8A02FB0F8404054
:1007100022F4FE0242EA04420A60D0E91024416F4A
:1007200002FB041181670268D2F8B04024F0FC0497
:1007300044EA8101C2F8B010016851F8B02FB0F856
:10074000484022F4FE0242EA04420A60D0E9122440
:10075000816F02FB0411C1670268D2F8AC4024F03B
:10076000FC0444EA8101C2F8AC10D0E91424C16F42
:1007700002FB0411C0F880100268D2F8F0409C43DC
:1007800044EA8101C2F8F010016851F8F02FB0F886
:10079000583022F47C1242EA03420A60826DD0F89B
:1007A000801001EB4201C0F884100268D2F8C0301A
:1007B00023F0FC0343EA8101C2F8C010016851F83C
:1007C000C02FB0F85C3022F47C1242EA03420A6087
:1007D000836EC26DD0F8841002FB0311C0F888103C
:1007E000016851F8C02F90F8603022F07C5242EA44
:1007F00003620A60416B224A02EB8101C166826B8F
:1008000001EB82020267C36B02EBC3024267D0E9CD
:100810001034634302EB83028267D0E912346343EE
:1008200002EB8302C267D0E91434634302EB830214
:10083000C0F88020836D02EBC303C0F88430C46D20
:10084000826E544303EB8403C0F88830046E544333
:1008500003EB84020B4BC0F890209A4207D9D0F8E2
:10086000981041F02001C0F89810012010BD00221E
:1008700000E004C1D0F890308B42FAD8002010BDBF
:1008800000AC0040FCB50040F0B5D1E901650C6951
:100890002C430D68C6B145F080452C4391F820707B
:1008A000D1E9066535434E6946EA07663543CE68A9
:1008B0003543D0F88460806E584306EB80030020F7
:1008C000E3E802450A4C0AE044EA8544E6E71618E4
:1008D000155C001DD6F8016045EA062520C3CD68E9
:1008E00004EB15452D788542F1D80020F0BD0000BD
:1008F000383010080248016841F00101016070477A
:100900002004005870B5044690F89400022804D0E2
:10091000D4F8980040F008000DE02068D0F8C0300E
:1009200013F07C5F03D0D0F8C4309B0207D5D4F815
:10093000980040F02000C4F89800012070BDD0F865
:10094000C400C0F3044520462B46FFF79DFF2168F5
:100950000120A840C1F8D000002070BD10B50400EF
:100960000AD000F0C7F8204600F1FEF80020C4F8D5
:10097000980084F8940010BD012010BD704700005D
:10098000F0B590F894400025012C08D090F89440E0
:10099000022C04D0D0F8981041F002011CE040294C
:1009A00005D041291CD0046D8C4211D92AE004687D
:1009B000D4F8A05015F4FE0F0AD0D4F8A4506D0658
:1009C00006D0D4F8A440466FC4F30525446C17E064
:1009D000D0F8981041F02001C0F898100120F0BD27
:1009E0000468D4F8B05015F4FE0FF1D0D4F8B45028
:1009F0006D06EDD0D4F8B440866FC4F30525C46C01
:100A00006C4302E0446DC66F4C4306EB84042668D9
:100A100016F080465660266824D026F060461660A0
:100A20002668264F06F000569660266806F00046B7
:100A30001661A688B6B2D661666806F47026D660DE
:100A4000666806F480165661666806F400169661BC
:100A50006668C6F3066616626668F60F566200267A
:100A6000083407E0C6F38A46D9E714F801CB761CB0
:100A700003F801CBD2F80CC007EB1C4C9CF800C06B
:100A8000B445F2D8402909D041290BD001222029B0
:100A90000CD200688A40C0F898200CE00068C0F8CA
:100AA000A85008E00068C0F8B85004E00068203999
:100AB0008A40C0F89C200020F0BD000038301008AB
:100AC000704790F89410012907D0D0F8981041F0A1
:100AD0000401C0F8981001207047022180F894109A
:100AE00001688A6922F001028A610021C0F8981029
:100AF0000846704790F894200021022A06D0D0F8CA
:100B0000981041F00801C0F8981013E0026893694A
:100B100043F00103936102680EE00B46491C0A2B67
:100B20000AD9D0F8981041F00101C0F898100321BB
:100B300080F89410012070479369DB07EDD091692C
:100B400041F002019161012180F89410002070476A
:100B5000704770477047704770470AB1018370470C
:100B600041837047014880687047000018000024E6
:100B700070B50D4D04464FF47A712878B1FBF0F052
:100B80000A490968B1FBF0F001F086F848B9102C69
:100B900007D200222146501E00F17CF900206C6033
:100BA00070BD012070BD0000180000240400002466
:100BB00000280DDB012100F01F0291404009800058
:100BC00000F1E020C0F88011BFF34F8FBFF36F8FAB
:100BD0007047002809DB012100F01F029140400905
:100BE000800000F1E020C0F80011704710B500F15E
:100BF00031FA084909684FF4807292FAA2F201F4BE
:100C00007061B2FA82F2D140034A515CC840034994
:100C1000086010BD18440258FC300008040000248D
:100C200010B500F1E7F907490968102292FAA2F21B
:100C300001F07001B2FA82F2D140034A515CC8401F
:100C400010BD000020440258FC300008364930B581
:100C50000A68096812F00302344BC1F305511B689E
:100C6000334C03F480732468DFED320AB7EE001AC8
:100C7000C4F3CC0414FB03F300EE103A2E4BB8EE91
:100C8000400A07D02D4C012A01D0022A4AD0B4FBD9
:100C9000F1F10BE0244C283C22689506284A03D544
:100CA0002468C4F3C104E240B2FBF1F101EE901AF2
:100CB0001968B8EE612AC1F3080101EE901A1968AB
:100CC000F8EE611A40EE201A31EE810A22EE000A97
:100CD000C1F34621491C00EE901AF8EE600A80EE3E
:100CE000201AFCEEC10AC0ED000A1968C1F30641E2
:100CF000491C00EE901AF8EE600A80EE201AFCEE15
:100D0000C10AC0ED010A1968C1F30661491C00EE71
:100D1000901AF8EE600A80EE201ABCEEC10A80ED4F
:100D2000020A30BD074ABFE7284402582C44025843
:100D300044440258000000394044025800093D0074
:100D40000090D00340787D012DE9F84F04460068FB
:100D500000252E46010104F12400FE4FDFF8F88340
:100D600000901DD5606E50B1B0F5801F0CD0B0F56D
:100D7000001F0ED0B0F5401F1DD001250FE03868D0
:100D800040F40030386016E00221201D01F04AF9DD
:100D900003E00098022100F1B1FB05000BD02E46C4
:100DA0002088C00523D5606D05281ED2DFE800F03D
:100DB0000C11161B1B00D8F80010626E21F44011B4
:100DC0001143C8F80010EBE7386840F40030386091
:100DD00009E00021201D01F025F903E00098002121
:100DE00000F18CFB05466DB100E001252E43208803
:100DF000800528D5A06D80281ED00CDC90B140283D
:100E00000ED114E0D8F80010626D21F007011143F3
:100E1000C8F80010EBE7C02813D0B0F5807F10D0E1
:100E200001250FE0386840F40030386009E0002107
:100E3000201D01F0F7F803E00098002100F15EFBAF
:100E4000054685B12E432088DFF8109340052CD548
:100E5000D4F8A400B0F5800F20D00DDCA0B1B0F51F
:100E6000001F0FD115E0D8F80010A26D21F4E07139
:100E70001143C8F80010E6E7B0F5C00F13D0B0F585
:100E8000000F10D001250FE0386840F400303860C2
:100E900009E00021201D01F0C5F803E000980021C1
:100EA00000F12CFB054675B12E43208800052DD599
:100EB000D4F8A800B0F1007F21D00EDCA8B1B0F1C9
:100EC000807F10D116E0D9F80010D4F8A42021F4C6
:100ED00060011143C9F80010E7E7B0F1407F13D07B
:100EE000B0F1806F10D001250FE0386840F4003079
:100EF000386009E00021201D01F094F803E000981B
:100F0000002100F1FBFA05466DB12E4320688001F7
:100F10001FD5A06CD8B110280FD0202812D03028AF
:100F200015D0012514E0D9F80010D4F8A82021F03C
:100F3000E0611143C9F80010E8E7386840F4003078
:100F4000386004E00221201D01F06CF805466DB107
:100F50002E432088C0042BD5E06DB0F5005F20D073
:100F60000DDCA0B1B0F5805F0FD115E07A48001F0D
:100F70000168A26C21F0300111430160E9E7B0F58E
:100F8000405F13D0B0F5804F10D001250FE03868D6
:100F900040F40030386009E00021201D01F042F8E3
:100FA00003E00098002100F1A9FA054685B12E431F
:100FB0002088800429D5206EB0F5403F23D010DC76
:100FC00008B3B0F5803F14D0B0F5003F0FD115E065
:100FD000D8F80010E26D21F4E0411143C8F8001088
:100FE000E6E7B0F5802F0ED0B0F5A02F0BD001258D
:100FF0000AE00121201D01F015F803E0009801210D
:1010000000F17CFA05468DB12E43208840042AD594
:10101000D4F8AC00B0F1405F23D010DC08B3B0F1DD
:10102000805F14D0B0F1005F0FD115E0D8F8001048
:10103000226E21F4E0211143C8F80010E5E7B0F179
:10104000804F0ED0B0F1A04F0BD001250AE0012156
:10105000201D00F0E7FF03E00098012100F14EFAA7
:1010600005466DB12E43208800041FD5E06ED8B12F
:10107000B0F1805F0ED0B0F1005F10D0012514E018
:10108000D9F80010D4F8AC2021F0E0411143C9F8A0
:101090000010E8E7386840F40030386004E00121CF
:1010A000201D00F0BFFF05466DB12E432068C00132
:1010B0001ED5606CD0B101280ED0022811D00328B3
:1010C00014D0012513E0D8F80010E26E21F0405151
:1010D0001143C8F80010E9E7386840F40030386080
:1010E00004E00221201D00F09DFF054675B12E434E
:1010F0002068DFF86CB040025AD51A48016841F404
:1011000080710160FFF72EFD82460EE01248001F3D
:101110000168626C21F0030111430160E8E7FFF709
:1011200021FDA0EB0A0064283AD80E480068C005EB
:10113000F5D5B5BB094818300068B4F8B01000F414
:10114000407001F44071884219D004481830016899
:101150000AE000002C4402585044025858440258F7
:101160001044025800480258026821F4407142F4C9
:1011700080320260026822F4803202600160D4F89A
:10118000B000B0F5807F22D1FFF7ECFC824609E089
:10119000FFF7E8FCA0EB0A0141F28830814201D957
:1011A000032504E0FE4800688007F1D57DB12E4399
:1011B0002078DFF8F0A3C0073CD0A06F182837D004
:1011C00025DC78B3082828D0102824D12BE0D4F8C7
:1011D000B000C0F3012103290ED0DBF8001021F488
:1011E0007C51CBF80010EE480168B4F8B020C2F38F
:1011F0000B0211430160DBE7DBF80020EA4B22F42D
:101200007C5203EA10100243CBF80020EBE72028C1
:101210000ED028280CD001250BE00121201D00F064
:1012200001FF04E004E00098012100F167F90546A0
:101230005DB12E43207880071ED5606F062819D235
:10124000DFE800F0160C11161616DAF80010A26F7F
:1012500021F038011143CAF80010EBE70121201DED
:1012600000F0E0FE03E00098012100F147F9054697
:1012700075B100E001252E43207840071FD5D4F832
:101280009000062819D2DFE800F0160C1116161689
:10129000DAF80010626F21F007011143CAF800105C
:1012A000EAE70121201D00F0BDFE03E000980121C6
:1012B00000F124F905469DB100E001252E43207878
:1012C00080062BD5D4F88C00B0F1405F24D011DC1F
:1012D00010B3B0F1805F15D0B0F1005F10D116E00F
:1012E000D9F80010D4F8902021F007011143C9F873
:1012F0000010E4E7B0F1804F0ED0B0F1A04F0BD05A
:1013000001250AE00021201D00F08CFE03E000987A
:10131000022100F1F3F805468DB12E4320784006F6
:101320002BD5D4F89800B0F5406F24D011DC10B361
:10133000B0F5806F15D0B0F5006F10D116E0DAF877
:101340000010D4F88C2021F0E0411143CAF80010BD
:10135000E4E7B0F5805F0ED0B0F5A05F0BD00125BB
:101360000AE00021201D00F05DFE03E0009802214C
:1013700000F1C4F805468DB12E43207800062BD528
:10138000D4F89C00B0F5C04F24D011DC10B3B0F5F8
:10139000005F15D0B0F5804F10D116E0D9F80010DD
:1013A000D4F8982021F4E0511143C9F80010E4E783
:1013B000B0F5004F0ED0B0F5204F0BD001250AE05C
:1013C0000021201D00F02EFE03E00098022100F114
:1013D00095F8054665B32E43207800070BD5D4F861
:1013E0008000B0F5805F2DD0DAF8002022F4405262
:1013F0000243CAF800202078C0060BD5D4F8940028
:10140000B0F5807F24D0D9F8002022F44072024346
:10141000C9F80020206800032CD5D4F8A000E8B15A
:10142000B0F5803F1FD0B0F5003F21D0012520E06E
:10143000D9F80010D4F89C2021F460411143C9F878
:101440000010C9E70098022100F158F80643D2E7DE
:101450000098022100F152F80643DBE70021201D2D
:1014600000F0E0FD03E00098022100F147F8054696
:1014700085B12E432068400322D5D4F88400B0F50E
:10148000801F11D0B0F5001F13D0B0F5401F15D04C
:10149000012514E0D9F80010D4F8A02021F440313F
:1014A0001143C9F80010E5E7386840F400303860AF
:1014B00004E00098012100F121F8054655B12E43C2
:1014C0002068C0031CD5E06C70B1B0F5803F10D02F
:1014D000012514E0DAF80010D4F8842021F440113A
:1014E0001143CAF80010EBE7386840F40030386068
:1014F00004E00221201D00F095FD0546C5B12E43F4
:101500002068800004D500980221FFF0F7FF064311
:10151000206880031BD5E06FB8B1B0F5807F10D094
:10152000B0F5007F11D0B0F5407F0ED001250DE061
:101530001C4808380168E26C21F4803111430160D5
:10154000DEE7386840F40030386045B32E43206849
:10155000C00207D5D8F80000226F20F000401043E9
:10156000C8F800002068C00008D5DBF80010D4F8E7
:10157000B42021F480411143CBF800102068800290
:1015800007D5D8F80010A26E21F080711143C8F879
:1015900000102068400014D5DBF8001006E01EE0C3
:1015A0007044025854440258CFFFFF0021F4004118
:1015B000CBF80010DBF80010D4F8B8201143CBF8BA
:1015C00000102068002806DA0A480168226D21F020
:1015D0004051114301605EB10120BDE8F88FDAF897
:1015E0000010E26F21F440711143CAF80010AEE719
:1015F0000020F2E74C4402582DE9F047DFF8BC9197
:1016000004460E46D9F8000000F00700B0420CD2A4
:10161000D9F8001021F007013143C9F80010D9F8BA
:10162000000000F00700B0427ED12078DFF8908102
:10163000800707D5D8F80010E26821F00F011143A8
:10164000C8F800102078C00762D0D8F80010A2684F
:1016500021F470611143C8F80010594960681839C5
:1016600002281CD003281DD0096801281DD0490775
:10167000002960DA524F083F396821F00701014321
:101680003960FFF76FFA0546606841F28831022839
:1016900013D003281ED001288A4627D034E00968D9
:1016A0008903E5E709688901E2E7C905E0E7FFF793
:1016B00059FA411B514501D923E08A463868C0F3E5
:1016C000C2000228F3D123E0FFF74CFA411B514539
:1016D00001D916E08A463868C0F3C2000328F3D166
:1016E00016E0FFF73FFA411B51450AD83868C0F3AE
:1016F000C2000128F5D10BE0FFF734FA411B514538
:1017000002D90320BDE8F087386810F0380FF3D114
:10171000D9F80010484601F00701B1420DD901681F
:1017200021F00701314300E005E00160006800F0AE
:101730000700B04201D00120E4E72078400707D538
:10174000D8F80010226921F070011143C8F8001088
:10175000207801071B4805D50168626921F07001F6
:10176000114301602178C90605D50168A26921F4F9
:10177000E061114301602078800607D51149091DF9
:101780000868E26920F0700010430860FFF062FC16
:10179000D8F800104FF4807292FAA2F201F470614E
:1017A000B2FA82F2D140084A515CC8400749086049
:1017B0000F20FFF7DDF90020A4E700000020005211
:1017C000184402581C440258FC300008040000244D
:1017D00010B5FFF00FFC07490968102292FAA2F237
:1017E00001F07001B2FA82F2D140034A515CC84064
:1017F00010BD00001C440258FC3000082DE9F05FC9
:1018000004460078DFF8FC8341F28839DFF8F8A35A
:10181000FE4DC0074ED0D8F800104046C1F3C201BB
:1018200002291AD00068C0F3C200032805D1DAF8F3
:10183000000000F0030002280FD06068B0F5803F80
:1018400012D010B1B0F5A02F19D0286820F4803044
:101850002860286820F4802009E02868800329D5C2
:101860006068002874D025E0286840F48030286043
:10187000606890B1FFF776F906464F4609E02868A0
:1018800040F480202860EFE7FFF76CF9801BB84236
:101890007DD828688003F7D50CE0FFF763F906468A
:1018A0004F4604E0FFF75EF9801BB842F0D8286885
:1018B0008003F7D42078D64F80075AD5D8F8001087
:1018C00040464FF47C3B11F0380F13D00068C0F352
:1018D000C200032803D1DAF8000080070AD0E068CC
:1018E000A8B3296821F0190101432960FFF73AF9EB
:1018F00006461DE02868400702D5E0680028B1D000
:101900002868E16820F0190008432860FFF72AF9E9
:10191000064604E0FFF726F9801B0228B8D828689D
:101920004007F7D507E0FFF71DF9801B0228AFD865
:1019300028684007F7D538689BFAABF220F47C3171
:101940002069B2FA82F290400143396011E000E070
:10195000AEE0286820F001002860FFF703F9064692
:1019600004E0FFF7FFF8801B022891D828684007A1
:10197000F7D42078C00655D5D8F8001040464FF06F
:10198000F84BC1F3C201012917D0006800E0EDE077
:10199000C0F3C200032805D1DAF8000000F003000C
:1019A00001280AD0E069002828682CD040F0800087
:1019B0002860FFF7D7F8064616E02868C00502D56C
:1019C000E069802874D138689BFAABF220F0F841C6
:1019D000206AB2FA82F290400143396022E0FFF7B8
:1019E000C1F8801B022899D82868C005F7D5386847
:1019F0009BFAABF2216AB2FA82F220F0F8409140F1
:101A0000084338600EE020F080002860FFF7AAF855
:101A1000064604E0FFF7A6F8801B022887D828684E
:101A2000C005F7D42078000724D5774F60694C377C
:101A3000002838680FD040F001003860FFF792F8B6
:101A4000064604E0FFF78EF8801B02288DD8386820
:101A50008007F7D50EE020F001003860FFF782F82C
:101A6000064604E0FFF77EF8801B02287ED838681F
:101A70008007F7D42078800623D5A069002828683D
:101A80000FD040F480502860FFF76CF8064604E061
:101A9000FFF768F8801B022868D828688004F7D50B
:101AA0000FE020F480502860FFF75CF8064605E060
:101AB000D6E0FFF757F8801B022857D82868800423
:101AC000F7D42078400744D5524F386840F48070EE
:101AD0003860FFF747F8064604E0FFF743F8801B3D
:101AE000642843D83868C005F7D5474FA068483701
:101AF00001280AD008B1052811D0386820F001006B
:101B00003860386820F0040002E0386840F00100D6
:101B10003860A06888B1FFF725F8064609E0386804
:101B200040F004003860F0E7FFF71CF8811B4945DE
:101B30001CD838688007F7D50BE0FFF713F8064686
:101B400004E0FFF70FF8811B49450FD8386880077C
:101B5000F7D4606AF0B3D8F80010C1F3C2010329CA
:101B60007ED00228286820F0807000E079E02860AC
:101B700003D0FEF7F7FF044687E0FEF7F3FF0646C3
:101B800004E0FEF7EFFF801B02287BD82868800165
:101B9000F7D4DAF8001040F2F3329143E26A41EAF6
:101BA0000211A26A1143CAF8001094F834004FF4ED
:101BB000FE02218E4002491EA0F5007080B2C1F3E2
:101BC00008010843218F491E02EA0141084394F8A5
:101BD0003C1000E05CE0491E120202EA0161084389
:101BE0000949083108600B1D19684FF6F872A06C9E
:101BF000914392FAA2F2B2FA82F290400143196044
:101C0000014809E010440258284402580044025890
:101C10000444025800480258001D0168226C21F05B
:101C20000C01114301600168626C21F00201114353
:101C30000160016841F480310160016841F40031C4
:101C40000160016841F480210160016841F00101F7
:101C50000160286840F080702860FEF783FF01E093
:101C600018E00FE0044604E0FEF77CFF001B0228AA
:101C700008D828688001F7D50AE0FEF773FF001B3B
:101C8000022802D90320BDE8F09F28688001F4D41F
:101C90000020F8E70120F6E7401EB0F1807F10B584
:101CA00001D3012010BD4FF0E02460610F216017C7
:101CB00000F1B2F80020A06107202061002010BDD3
:101CC0007047000008B500680B49884212D10B48E4
:101CD000016841F00201016000680322012100F067
:101CE000020000901D20FFF0D5F8BDE808401D203F
:101CF000FEF76FBF08BD000000040040E844025832
:101D00000168CA6842F00102CA600068018841F0B7
:101D1000010101800020704770477047704770478D
:101D200070B502680446D0691368916810F00F0F0F
:101D300064D0594D03F490760D40354376D0C507F5
:101D400007D0DD0505D501251562E26F42F00102DD
:101D5000E267820708D5CA0706D0256802222A62F0
:101D6000E26F42F00402E267420708D5CA0706D0D4
:101D7000256804222A62E26F42F00202E26702074B
:101D80000ED503F0200201F080552A4352EAC172B9
:101D900006D0256808222A62E26F42F00802E26754
:101DA000E26F002A3AD0800608D503F0200001F047
:101DB0008051084302D02046FFF022FDE06F00076B
:101DC00003D42068806840062AD5204600F04AFAED
:101DD0002068816849061ED5816821F04001816034
:101DE000606FC0B12D490165606FFEF0FFFA0028F9
:101DF00014D0606F016DBDE870400847850615D5A9
:101E000003F0200501F0805635430FD02046BDE891
:101E10007040FFF0F5BC2046FFF781FF70BD05E084
:101E20002046FFF77CFF0020E067F7E7C6024FF08F
:101E300020050CD54E020AD5E803106284F87950CB
:101E400084F87A502046BDE87040FFF767BF060669
:101E50000AD503F0800601F400010E4304D02046A9
:101E6000BDE8704000F00CBA41060BD5590609D503
:101E70001168204621F04001116084F87950FFF08C
:101E8000A8FACBE70002C9D55800C7D5106820F0E2
:101E900080401060C2E7000001000010ED1710083C
:101EA00010B5006886B01B49884230D11A480168D5
:101EB00041F001010160006800F001000590164842
:101EC0001030016841F01001016000680121134CDD
:101ED00000F0100005904FF4007000900220CDE952
:101EE000010103900720694604902046FEF0BCFEE5
:101EF0004FF48061204600916946FEF0B5FE252032
:101F0000FEF767FE032225201146FEF0C3FF06B050
:101F100010BD000000100140E044025800000258CB
:101F200090F87A30202B4CD1B9B1B2B190F878301A
:101F3000012B46D0012380F878304166A0F8682054
:101F4000A0F86A20FF228168B1F5805F07D07F2367
:101F500051B1B1F1805F0CD010E0012070470169F0
:101F600021B940F2FF1107E0016909BBA0F86C201C
:101F700004E00169E1B13F21A0F86C100021C167C4
:101F8000222280F87A2080F8781001688A6842F06E
:101F900001028A6001680A6892000CD50A6842F45E
:101FA00080720A600068816841F08051816006E0BB
:101FB000A0F86C30E2E7086840F4907008600020F8
:101FC000704702207047000030B500681149884210
:101FD0000CD1114A5088010408D411464FF0000377
:101FE0004404097806D50A2901D0538030BD40F455
:101FF00000400DE00D2909D0084DC0F30D04401C30
:1020000080B2C72829555080EFD830BD40F48040B9
:10201000508030BD001001401000002490000024CA
:10202000FEE770472DE9F047DFF8E48004460F46ED
:102030004FF00009D8F80000C043800709D0344DA4
:10204000283D286820F080602860FEF78BFD06465A
:1020500007E00120BDE8F087FEF784FD801B022821
:102060004ED828680001F7D4D8F80010226821F46F
:102070007C3141EA0231C8F80010207A4FF4FE02A8
:10208000A1884002491EA0F5007080B2C1F308018A
:102090000843A189491E02EA01410843217C12023A
:1020A000491E02EA016108431949103108601848C5
:1020B000001D0168626921F0C001114301600168DF
:1020C000A26921F02001114301606FB10168012F65
:1020D0000ED041F400110160286840F08060286053
:1020E000FEF740FD04460DE0016841F40021F2E7EF
:1020F00041F48011EFE7FEF735FD001B022801D9FE
:102100000320A7E728680001F5D54846A2E70000AC
:1021100028440258FEF0A6BE1C48016841F4700134
:1021200001601B49086840F001000860184A00205F
:10213000103210600A68174B1A400A60144A1832AD
:102140001060121D1060121D1060114A28321060BC
:10215000121D1060121D1060121D1060121D106003
:10216000121D1060121D1060121D10600A6822F40A
:1021700080220A6006496031086001200649C1F8E2
:102180000801C006014980390860704788ED00E009
:10219000004402587FEDF6EA0080005190F83410B8
:1021A000C90706D001684A68836B22F400321A43DB
:1021B0004A6090F83410890706D501684A68C36BF5
:1021C00022F480321A434A6090F83410490706D549
:1021D00001684A68036C22F480221A434A6090F82E
:1021E0003410090706D501684A68436C22F400429E
:1021F0001A434A6090F83410C90606D501688A6807
:10220000836C22F480521A438A6090F83410890655
:1022100006D501688A68C36C22F400521A438A60AA
:1022200090F83410490611D501684A68036D22F40C
:1022300080121A434A60016DB1F5801F06D1016812
:102240004A68436D22F4C0021A434A6090F8341081
:10225000090606D501684A68806D22F4002202430F
:102260004A60704701680A6822F490720A60016847
:102270008A6822F001028A60202180F87A10704773
:1022800090F87910212901D002207047B0F862102F
:1022900021B18168B1F5805F13D014E001680A684C
:1022A000920004D58A6822F400028A6003E00A687A
:1022B00022F080020A600068016841F0400101607C
:1022C0000CE0016961B1C16D4A1CC2650268097800
:1022D0001185B0F86210491EA0F862100020704706
:1022E000C16D02680988C1F308011185C16D891C9F
:1022F000C165EEE7FEE700B52DED028BB1EEC08BB8
:1023000083B018EE100A18EE901A8DED008B00289D
:1023100018BF0120084320F00040C0F17F6000F1A9
:10232000E040C00F14D010EE101A10EE900A8DEDA0
:10233000000B002918BF0121084320F00040C0F124
:102340007F6000F1E040C00F04BF012000F070F892
:10235000B0EE480B03B0BDEC028B00BD491E00EB94
:10236000C102B0EE401B92ED000B31F006020DD021
:10237000491E00EBC102B0EE403B92ED002B31F064
:102380000602B0EE420B03EE010BF1D1022914D08C
:1023900004290AD0062918BF704790ED0A2B00EED9
:1023A000012B90ED080B02EE010B90ED062B00EED9
:1023B000012B90ED040B02EE010B90ED022B00EED1
:1023C000012B90ED000B02EE010B704700000000A6
:1023D0009FED031B9FED042B81EE020B7047000065
:1023E000000000000000F03F0000000000000000BE
:1023F00030EE010B704700009FED030B20EE000B49
:1024000070470000000000000000000000000070A5
:1024100002E008C8121F08C1002AFAD170477047AD
:10242000002001E001C1121F002AFBD1704700000B
:102430000149086070470000280000242DE9F041A0
:10244000044600251E469046C80301D5302700E00B
:102450002027880404D505E041463846B0476D1C66
:10246000641EF9D52846BDE8F0811CB5A42300F50B
:10247000A0708DF8003000238DF801308DF8022017
:10248000120A8DF803200A0A8DF804108DF8052031
:102490000A0C8DF80620090E4FF400228DF8071063
:1024A0006946FDF089FF1CBD70B5002405464FF458
:1024B0007A7603E0304600F005F8641CAC42F9D3AC
:1024C00070BD000070B54FF0E02500216C69094A2D
:1024D000AB6912685043AA699A42FCD002D2A3EBBE
:1024E000020302E0A4EB020633441944134681427E
:1024F000F1D370BD0C00002482B0CDE9000121F0C1
:10250000004001909DED000B02B051EC100B7047A4
:102510000349CA695206FCD5C2B20A857047000059
:102520000010014070B50C4605462DED068B91ED6F
:10253000000AB7EEC00A9FED52AB3AEE400B9FED9A
:10254000528BB0EE001B30EE480BFFF075FCB0EE86
:10255000409B94ED010AB0EE001BB7EEC00AFFF0FD
:102560006BFC39EE009B94ED020AB0EE001BB7EE57
:10257000C00AFFF061FC39EE000BFFF7BCFEB7EEBE
:10258000C00BB0EE001B85ED000A94ED000AB7EE1B
:10259000C00AFFF051FCB0EE409B94ED010AB0EE92
:1025A000001BB7EEC00A3AEE400B30EE480BFFF0CE
:1025B00043FC39EE009B94ED020AB0EE001BB7EE2F
:1025C000C00AFFF039FC39EE000BFFF794FEB7EEBE
:1025D000C00B9FED2FABB0EE001B85ED010A94ED13
:1025E000000AB7EEC00A3AEE400B30EE080BFFF0DF
:1025F00023FCB0EE409B94ED010AB0EE001BB7EE59
:10260000C00AFFF019FC39EE009B94ED020AB0EE0F
:10261000001BB7EEC00AFFF00FFC39EE000BFFF70E
:102620006AFEB7EEC00BB0EE001B85ED020A94ED1A
:10263000000AB7EEC00AFFF0FFFBB0EE409B94ED3E
:10264000010AB0EE001BB7EEC00A3AEE400B30EEC6
:10265000080BFFF0F1FB39EE008B94ED020AB0EEAF
:10266000001BB7EEC00AFFF0E7FB38EE000BFFF7E8
:1026700042FEB7EEC00B85ED030ABDEC068B70BDC4
:10268000E17A14AE47E1E63F9A9999999999A93F61
:10269000E17A14AE47E1E6BF2DED088BA0B04FF014
:1026A000010AFDF765FFFEF0E5FB04230222052188
:1026B000A020FEF09DFF4FF4C87000F193FC4FF492
:1026C000E13000F0E7FCFEF0E9FEFEF083FE44F6A8
:1026D0001F6140F22B10FEF0E5FF00200090082360
:1026E0001F2219460A20FDF78DFF012000F184FC0E
:1026F0004FF4FA7B5D465846FFF7E4FE022000F1F6
:102700007BFC2846FFF7DEFE032000F175FC28461F
:10271000FFF7D8FE042000F16FFC2846FFF7D2FE39
:10272000FE4CA16AE06A4FF4B47701203E463A4677
:10273000FFF79BFE2846FFF7C5FE216C606C022068
:102740003246FFF792FE2846FFF7BCFEA16DE06D12
:1027500003203246FFF789FE2846FFF7B3FE216FBC
:10276000606F04203246FFF780FE2846FFF7AAFE7E
:10277000A06AE16A0090206C616C0890A06DE16D28
:102780000E90206F616F1E90A56AE06A266C606CE7
:10279000D4F85880E16DD4F87090616F0DF1580C49
:1027A000DF480EC88CE80E000EC80DF1040C8CE852
:1027B0000E000FABB0EC039A07C883E8070016A918
:1027C00019A8FFF7AFFEDFEDD7AAFEF021FE4FF408
:1027D000B4740099012022460990FFF746FE4FF499
:1027E000FA773846FFF76EFE089902202246FFF777
:1027F0003CFE3846FFF766FE0E9903202246FFF79F
:1028000034FE3846FFF75EFE1E9904202246FFF78D
:102810002CFE3846FFF756FEC34A118808047CD5C3
:10282000002004AF00233B54401C1028FADBCCB23C
:10283000BEA02146FFF0C8FADFF808B3002003E08D
:102840001BF800103954401CA042F9DB082C06D0BC
:10285000102C7AD0BCA0FFF0B7FA002700E19DF958
:10286000100070B101283FD0B9A0FFF0ADFA0027E9
:10287000BAA01BF80710FFF0A7FA7F1CA742F7DBEE
:10288000F0E09DF9110000EE100AF8EEC00A80EEAB
:10289000AA0A8DED010A9DF9120000EE900AF8EEE9
:1028A000E00A80EEAA1A8DED021A9DF9130000EEDF
:1028B000900AABA0F8EEE00A80EEAA1AB7EEC00AC2
:1028C00053EC102B8DED031AFFF07EFA9DED020AFA
:1028D000A7A0B7EEC00A53EC102BFFF075FA9DEDE0
:1028E000030AB7EEC00A29E09DF9110000EE100AB4
:1028F0009DF91200B8EEC00A80EE2A9A00EE100A86
:102900009DF91300B8EEC00AC0EE2A9A00EE100A34
:10291000B8EEC00A80EE2AAA00E0ACE0B7EEC90A21
:1029200095A053EC102BFFF04FFAB7EEE90A90A0F8
:1029300053EC102BFFF048FAB7EECA0A92A053EC02
:10294000102BFFF041FA8DE0FFE79DF81000C8BBA7
:102950009DF9110000EE100AF8EEC00A80EEAA0AF6
:102960008DED010A9DF9120000EE900AF8EEE00AE2
:1029700080EEAA1A8DED021A9DF9130000EE900A5E
:1029800077A0F8EEE00A80EEAA1AB7EEC00A53EC80
:10299000102B8DED031AFFF017FA9DED020A74A0BB
:1029A000B7EEC00A53EC102BFFF00EFA9DED030AB0
:1029B00075A0B7EEC00A53EC102BFFF005FA73A018
:1029C000FFF002FA9DF81800012833D19DF9190093
:1029D00000EE100A9DF91A00B8EEC00A80EE2A9A9D
:1029E00000EE100A9DF91B00B8EEC00AC0EE2A9A4C
:1029F00000EE100A60A0B8EEC00A80EE2AAAB7EE78
:102A0000C90A53EC102BFFF0DFF9B7EEE90A58A022
:102A100053EC102BFFF0D8F9B7EECA0A5AA053ECCA
:102A2000102BFFF0D1F959A0FFF0CEF99DF8180056
:102A300001281AD09DF81000B8B155A0FFF0C4F9D4
:102A4000002746A01BF80710FFF0BEF97F1CA74225
:102A5000F7DB07E01BF8071040A0FFF0B5F97F1C7B
:102A6000A742F7DB49A0FFF0AFF92F49002008800B
:102A700046A0FFF0A9F94948017801297FF4A5AEE5
:102A800009990229FAD10024047045480903FEF08F
:102A9000E4F92248047680F8304080F8484080F815
:102AA0006040012000F1A8FA4FF4FA70FFF70AFD28
:102AB000022000F1A1FA4FF4FA70FFF703FD0320A2
:102AC00000F19AFA4FF4FA70FFF7FCFC042000F1D1
:102AD00093FA4FF4FA70FFF7F5FC9DED010ADDED76
:102AE000023A9DED033AB7EEC01A79EE400A00EEC5
:102AF00010AA79EEE34A3AEE434AB8EEC00A20EE55
:102B0000800AB7EEC02A9FED270B02EE001BB7EE3E
:102B1000C11B8DED0F1AB7EEE31A47E03000002419
:102B2000CC3000080000C8421200002452656365E2
:102B3000697665642025642062797465733A0D0AAC
:102B400000000000900000246572726F723A00006D
:102B50006E6F7468696E67383A0000002564200063
:102B6000706F736974696F6E5F313A25662020005B
:102B70002566202000000000706F736974696F6E15
:102B80005F323A2566202000256600000D0A00000D
:102B90006E6F7468696E6731363A00000000002479
:102BA000001002587B14AE47E17AA43F02EE10AA4F
:102BB0000FA90AA8B8EEC22A24EE822AB7EEC22ACA
:102BC00002EE001B02EE10AAB8EEC22A24EE022A80
:102BD000B7EEC11BB7EEC22A8DED101AB7EEC31ABD
:102BE00002EE001BB7EEC10B8DED110AFFF79AFC48
:102BF00001A912A8FFF796FC9DED0A0ADDED120A65
:102C000030EE600A9FED43BA20EE0B0AB7EEC01A11
:102C10009FED418B81EE080B51EC100BFDF002FA99
:102C20009DED0B0ADDED130A074630EE600A20EE3B
:102C30000B0AB7EEC01A81EE080B51EC100BFDF039
:102C4000F1F99DED0C0ADDED140A044630EE600A40
:102C500020EE0B0AB7EEC01A81EE080B51EC100BF8
:102C6000FDF0E0F99DED0D0ADDED150A834630EE2D
:102C7000600A20EE0B0AB7EEC01A81EE080B51EC89
:102C8000100BFDF0CFF9361BED19B9EB0009294601
:102C90004FF461644FF0010018EB0B082246FFF778
:102CA000E4FB4FF4FA70FFF70DFC02203146224698
:102CB000FFF7DBFB4FF4FA70FFF704FC03204146FB
:102CC0002246FFF7D2FB4FF4FA70FFF7FBFB04201C
:102CD00049462246FFF7C9FB4FF4FA70FFF7F2FBB3
:102CE0009DED0F0A01208DED010A9DED100A8DED7D
:102CF000020A9DED110A8DED030A00F011F8022081
:102D000000F00EF8032000F00BF8042000F008F8A3
:102D10005BE5000000A00C479A999999BF15B03F58
:102D200070B505462DED028B00EB4501334800EBF5
:102D3000C10494F9002032A02946FFF045F894F927
:102D4000012034A02946FFF03FF8B4F902002946DB
:102D50009FED398A00EE100A38A0B8EEC00AC0EE26
:102D6000080AB7EEE00A53EC102BFFF02DF8B4F987
:102D70000400294600EE100A37A0B8EEC00AC0EEE3
:102D8000080AB7EEE00A53EC102BFFF01DF8A0790B
:102D900000282BD010282CD0A27936A02946FFF08D
:102DA00013F8B4F908203DA02946FFF00DF8B4F956
:102DB0000A2040A02946FFF007F8A28945A029462D
:102DC000FFF002F820696169FDF7A1FA00EE100A30
:102DD000294646A0C0EE080ABDEC028BBDE8704053
:102DE000B7EEE00A53EC102BFEF0EEBF47A02946E9
:102DF00001E04EA02946FEF0E7FFD2E730000024B4
:102E00006D6F746F722025642063616E3A202564B3
:102E1000200D0A006D6F746F722025642074656D3B
:102E200070657261747572653A2025642064656707
:102E3000726565200D0A00000000C8426D6F746F56
:102E40007220256420766F6C746167653A20252EA8
:102E500032662056200D0A006D6F746F7220256453
:102E60002063757272656E743A20252E3266204199
:102E7000200D0A006D6F746F7220256420737461D9
:102E80007475733A20756E6B6E6F776E202830788C
:102E90002530325829200D0A000000006D6F746F34
:102EA0007220256420706F7765723A202564205760
:102EB000200D0A006D6F746F722025642073706599
:102EC00065643A202564206465677265652F732008
:102ED0000D0A00006D6F746F7220256420656E63AB
:102EE0006F6465723A202575200D0A006D6F746F4E
:102EF0007220256420616E676C653A20252E32664B
:102F000020646567726565200D0A00006D6F746F3F
:102F100072202564207374617475733A206F706534
:102F20006E20283078303029200D0A006D6F746FC4
:102F300072202564207374617475733A2073687508
:102F40007420646F776E20283078313029200D0A84
:102F50000000000000EB40031F4870B500EBC30306
:102F600001221A70002688784C78020E44EA002468
:102F7000C87844EA004442EA1042087944EA00640E
:102F800042EA102248790243887942EA0022C8794D
:102F90001C6142EA00425A618C784A78200E42EA6B
:102FA0000422CC7842EA044240EA14400C7942EA16
:102FB000046240EA14204C7920438C79C97940EAB4
:102FC000042040EA014000F400010E4301D040F02B
:102FD0007F401A61586170BD3000002400EB40034F
:102FE0000748012200EBC30002704A7842704A8809
:102FF00042808A8882808A798271C979C1717047DA
:103000003000002400EB40030648012200EBC3001F
:1030100002704A7842704A8802818A884281C9884F
:10302000818170473000002400B541EC100B2DED7C
:10303000028B83B0B1EEC08B18EE100A18EE901A16
:103040008DED008B002818BF0120084320F00040C0
:10305000C0F17F6000F1E040C00F14D010EE101AF4
:1030600010EE900A8DED000B002918BF01210843D6
:1030700020F00040C0F17F6000F1E040C00F04BFCD
:103080000120FFF7D5F951EC180B03B0BDEC028B12
:1030900000BD00000B490A4A10B5C1E9002000201C
:1030A0008860C860086188610C2048610846FEF0AD
:1030B0005BF9BDE81040044901220248FEF730BF29
:1030C00000100140580100241000002400000000FE
:1030D000000000005C8F02BF000000000000000044
:1030E0005C8F02BF000080BE000080BECDCCCCBE95
:1030F00000000000000000005C8F02BF0000000024
:103100000102030401020304060708092C31000828
:10311000000000242C000000102400085831000892
:103120002C000024D4060000202400080000000029
:103130000090D0030090D0030000000000000000C9
:10314000000000000100000010000000000000006E
:08315000000000000000000077
:020000040810E2
:100000000648804706480047FEE7FEE7FEE7FEE7B2
:10001000FEE7FEE7FEE7FEE7FEE7FEE71921000840
:100020009902000870B5C1F30A5201F0004500249E
:10003000C1F3130140F2FF3341F480119A4202DA16
:100040000020014670BD40F233439A42A2F233428F
:1000500003DC524200F021F801E000F76EF92C4376
:10006000F0D00023D0EB030063EB010170BD30B58D
:100070000B46014600202022012409E021FA02F566
:100080009D4205D303FA02F5491B04FA02F5284400
:10009000151EA2F10102F1DC30BD202A04DB203A5A
:1000A00021FA02F00021704721FA02F3D040C2F198
:1000B000200291400843194670470029A8BF7047A5
:1000C000401C490008BF20F00100704710B4B0FA8E
:1000D00080FC00FA0CF050EA010404BF10BC704729
:1000E00049B1CCF1200421FA04F411FA0CF118BF43
:1000F000012121430843A3EB0C01CB1D4FEA006112
:100100004FEA102042BF002010BC704700EBC350E4
:1001100010440029A4BF10BC7047401C490008BF10
:1001200020F0010010BC70472DE9FE4F804681EAA7
:100130000300C00F0C46009021F0004123F0004561
:10014000B8EB0200A94105D24046214690461C4624
:100150000B46024623F00040104347D0270DC7F35B
:100160000A00C3F30A510290401A019040286BDA4A
:10017000C3F3130040F4801B0098924620B1002383
:10018000D2EB030A63EB0B0B01985946C0F1400216
:10019000504600F7D2F806460D4650465946019A99
:1001A00000F776F910EB08006141002487EA11524C
:1001B00084EAE7731A4340D0009A62B3019A012A95
:1001C0004FEA075215DC001B61EB02014FF00042C1
:1001D00002EA0752CDE90042001C41F58011324687
:1001E0002B4600F776F903B0BDE8F08F4046214674
:1001F000F9E7001B61EB0201001C41F580130018B8
:100200005B412018A2F5001747EB030140EAD570C7
:10021000B6196D4111E06D084FEA360645EAC07522
:100220004FEA0752001B61EB0201001C41F58011EF
:1002300049084FEA30000019514132462B4603B0BD
:10024000BDE8F04F00F736B90098012240000023C6
:10025000D0EB020263EBE073009821464FEAE074B2
:10026000B8EB000061EB0401E9E783F000435BE7D2
:1002700081F0004158E72DE9F04D81EA030404F0D4
:10028000004B21F0004514464FF0000A23F00041D6
:1002900050EA050220D054EA01021DD0C5F30A57E6
:1002A0000246C5F31303C1F31300C1F30A5640F429
:1002B000801543F48013A7EB0608101BD64608F2FE
:1002C000FD3873EB050002D308F1010801E0921834
:1002D0005B41B8F1000F03DA00200146BDE8F08D64
:1002E00000204FF48011064684460EE0171B73EB86
:1002F000050705D3121B63EB050306434CEA010C0B
:1003000049084FEA300092185B4150EA0107EDD1ED
:1003100052EA030012D082EA040083EA050108438E
:1003200005D0101BAB4106D20122002306E00022BB
:100330004FF0004302E06FF0010253101AEB060089
:100340004CEB085110EB0A0041EB0B01BDE8F04DFE
:1003500000F7B0B870B521F0004303430CD0C1F3EF
:100360000A550024D5EB040564EB0403D617AD1A37
:10037000B34102DB0020014670BD201841EB025161
:1003800070BD000030B5041E71F1000404DB4FF0B5
:100390000044404264EB0101141E73F1000405DBCC
:1003A0001C464FF00043524263EB0403994208BFDE
:1003B000904230BDFEE7704713460B4A10B51060FF
:1003C00000205060C2E90203106150619061D06169
:1003D00010620A460449A1F1C40000F793FA00280C
:1003E00000D0012010BD00009C02002410B528B1EF
:1003F00090F83510022903D080214165012010BDFD
:100400001D4A4FF4956301688C189C4207D804225A
:1004100080F83520086820F00100086029E00C68A9
:1004200024F00E040C6001680A440A6822F00102FC
:100430000A60016E0A6822F480720A6090F85C30EB
:10044000012202FA03F10D4B1960D0E919134B6038
:10045000C16E31B10B6823F480730B60D0E91C13BB
:100460004B60002180F8341080F83520016D01B117
:100470008847002010BD0000F0FFFDBF0454025863
:1004800010B590F89430012B0BD090F89430022BDB
:1004900007D0D0F8981041F00201C0F89810012060
:1004A00010BD03689C6D0C4203D1DC6D44F0010467
:1004B00004E09C6D31EA04041ED00324DC658B0546
:1004C00005D50368D3F8E0401443C3F8E0404B057A
:1004D00005D50368D3F8E4401443C3F8E44000684A
:1004E000426D074B0B401A4342650648026842EAD8
:1004F00091710160002010BDDC6D44F00204DDE765
:10050000FFFFCF3F14A80040704710B590F894202B
:10051000012A0BD090F89420022A07D0D0F8981026
:1005200041F00201C0F89810012010BD0B68CA68A4
:1005300083B10B69072A43EA427325D00C7A4A69D2
:1005400042EA84724968006F00EBC100C0E90032E2
:10055000002010BD072A0DD00C7AD2064B6943EA61
:1005600084730C8A42EA0442C06E4968134340F81F
:100570002130EDE70B8A4FF060548A6942EA034369
:10058000CA6944EA0222EFE78A69DBE770470000A4
:100590002DE9F05FEB4E044630688007351D296871
:1005A00000EA817B2068016D426D01F4704102EA2E
:1005B0000108016D426D01F00F0102EA0109016DB0
:1005C000426D01F0F00102EA010A016D476D01F090
:1005D0007F510F40016DC90510D5416DC9050DD57D
:1005E000416D21F48071416528682860A815216853
:1005F0000865002030602046FFF7C8FF2068016DC5
:1006000049051CD5416D490519D5416D21F480611D
:100610004165286828602068D0F8DC20D0F8E41014
:100620001140D0F8E4208A43C0F8E42022684FF457
:100630008060106500203060204600F78CFABBF126
:10064000000F13D021684A6DBF4B0BEA03008243B1
:100650004A652A6822EA9B712960216808654FEA89
:100660009B70306059462046FFF74EFFB8F1000FEF
:1006700013D021684A6DB44B08EA030082434A65EF
:100680002A6822EA98712960216808654FEA987003
:1006900030604146204600F75FFAB9F1000F13D0F1
:1006A00021684A6DA84B09EA030082434A652A681B
:1006B00022EA99712960216808654FEA99703060D3
:1006C0004946204600F096FABAF1000F13D021688F
:1006D0004A6D9D4B0AEA030082434A652A6822EA72
:1006E0009A712960216808654FEA9A703060514616
:1006F000204600F0B3FA2068016D090511D5416D5F
:1007000009050ED5416D21F4006141652868286016
:100710004FF400602168086500203060204600F03A
:10072000A2FA2068016D89051CD5416D890519D58E
:10073000416D21F400714165286828602068D0F877
:10074000D820D0F8E0101140D0F8E0208A43C0F85B
:10075000E02022684FF400701065002030602046D1
:1007600000F080FA2068016D090311D5416D09037D
:100770000ED5416D21F400214165286828604FF4B1
:1007800000202168086500203060204600F798F9B5
:100790002068016DC90311D5416DC9030ED5416DA6
:1007A00021F480314165286828604FF48030216849
:1007B000086500203060204600F053FA2068016D83
:1007C000490311D5416D49030ED5416D21F48021B6
:1007D0004165286828604FF4802021680865002062
:1007E0003060204600F7B6F92068016D890314D502
:1007F000416D890311D5416D21F4003141652868AF
:1008000028604FF400302168086500203060D4F87B
:10081000980040F08000C4F898009FB121684B6DAB
:10082000494A07EA020083434B65296821EA977128
:10083000296021680865B80F3060D4F89800384303
:10084000C4F8980041492068884271D16068816885
:1008500089076DD0016A01F00F02416A1140026AF6
:10086000476A02F0300207EA0207026A436A02F4AA
:10087000C07203EA0208026A456A02F4FC4205EA11
:100880000205026A466A02F4F02206EA020607D06E
:10089000426A8A43426260680162204600F0DFF9E2
:1008A0004FB16068416AB943416260680762394686
:1008B000204600F0D5F96068016A490611D5416A01
:1008C00049060ED5416A21F0400141626068C16B62
:1008D000C26B090C4023036202F03F02204600F77E
:1008E00038F9B8F1000F0BD06068416A21EA0801BD
:1008F00041626168C1F820804146204600F728F92E
:1009000055B16068416AA943416260680562D4F8E4
:1009100098002843C4F8980056B16068416AB14312
:10092000416260680662D4F898003043C4F89800C9
:10093000D4F89800002802D0204600F71FF8BDE840
:10094000F09F000010A80040FFFFCF3F00A0004034
:100950002DE9F04104000CD0814E2068B04202D154
:1009600000F58070606094F894004FF0000818B1B2
:1009700007E00120BDE8F081204684F8958000F072
:1009800001F92068816921F01001816100F7EAF81E
:100990000327054604E000F7E5F8401B0A2811D8B4
:1009A000206880690007F6D42068816941F0010160
:1009B000816100F7D7F805460DE000F7D3F8401B3A
:1009C0000A2808D9D4F8980040F00100C4F898002B
:1009D00084F89470CDE720688069C007EDD0206866
:1009E000816941F002018161207C012820688169D0
:1009F0002DD041F040018161607C0128206881692F
:100A000028D021F480418161A07C0128206881697F
:100A100023D041F48051816120688169A26821F46A
:100A2000407111438161E068012819D010B3022898
:100A30001BD02068816941F08001816120680169D3
:100A400041F010010161E06803280ED012E021F0AE
:100A50004001D0E741F48041D5E721F48051DAE745
:100A60002068816941F0040103E02068816941F058
:100A700020018161207E6FF0FF02E169A38A4006B8
:100A800002EB0121A0F100700843216A491E0843CE
:100A9000110201EB034318432368D861A068B0F545
:100AA000407F10D1D4E90A03401E02EB0322104319
:100AB000226B0B1303EB02121043A28C01EB0241D9
:100AC00008432168C860206E30B12068D0F8C0109B
:100AD000626E1143C0F8C010D4E91701C842214921
:100AE00008D0206850F8C82FA36E22F00702CB5C14
:100AF0001A430260206C40B1206850F8BC2F636C30
:100B000022F00702CB5C1A430260A06C48B1206857
:100B100050F8BC2FE36C22F07002CB5C42EA031267
:100B20000260206D48B1206850F8BC2F636D22F43C
:100B3000E062C95C42EA012101602068B04204D150
:100B40006068816821F0030181602046FFF6A4FD02
:100B5000C4F89880012084F8940000200AE700007F
:100B600000A00040483010080548016841F4807139
:100B70000160016821F480710160132000F718B84A
:100B800094440258194800B5B5B0016841F4807129
:100B90000160006800F48070349014480C380168DB
:100BA00041F008010160006800F0080034904FF443
:100BB0000040009040031B90684600F7C5F80320F2
:100BC0002F900220309001203190329009203390F4
:100BD0002FA9074800F048F802220121132000F055
:100BE00059F91320FFF6F5FF35B000BDEC4402586B
:100BF000000C02587CB50546C8072BD0164A402188
:100C00006B462846FFF6BCFE9DF80000124C9A2861
:100C100005D120686946A0F5A07002F7DFF99DF8BC
:100C200000009C2801D0A42805D120686946A0F5C1
:100C3000A07002F7E7F99DF80000922805D120681E
:100C40006946A0F5A07002F785F900222846012127
:100C5000FFF716FC7CBD000074020024704770474B
:100C600070477047704770472DE9F84F6C4C002271
:100C70004FF0B04A4FF0010B4FF0030E4FF00F0949
:100C80000B680BFA02F73B40BB4270D14D68022D56
:100C900001D0122D12D1D50800EB850CDCF82060B4
:100CA0005507ED0E09FA05F826EA0806D1F8108076
:100CB00008FA05F848EA0608CCF82080D0F8008049
:100CC000560091F804C00EFA06F50CF0030C28EA61
:100CD00005080CFA06FC4CEA080CC0F800C0D1F874
:100CE00004C0BCF1010F08D0BCF1020F05D0BCF16B
:100CF000110F02D0BCF1120F16D1D0F808C0D1F8F4
:100D00000C802CEA050C08FA06F848EA0C08C0F832
:100D10000880D0F804C02CEA070C0F79C7F300173D
:100D2000974047EA0C074760C768AF438D68B540F6
:100D30003D43C5604D68ED006BD53A4D2E6846F0D9
:100D400002062E602D6822F0030606F1B04605F07B
:100D500002050095D6F808C495072F0F09FA07F584
:100D60002CEA050C304DA84202D100252EE050E0BF
:100D70002E4DA84201D1012528E02D4DA84201D1D8
:100D8000022523E02B4DA84201D103251EE02A4D68
:100D9000A84201D1042519E0284DA84201D105251A
:100DA00014E0274DA84201D106250FE0254DA842A9
:100DB00001D107250AE0244DA84201D1082505E00C
:100DC000224DA84201D1092500E00A25BD4045EA8F
:100DD0000C05C6F8085425684E689D43F60300D5F7
:100DE0001D43256065684E689D43B60300D51D43CD
:100DF0006560DAF8005056464F689D43FF0200D503
:100E00001D43356075684F689D43BF0200D51D4383
:100E10007560521C102AFFF433AFBDE8F88F000054
:100E200080000058F44402580000025800040258A0
:100E300000080258000C0258001002580014025812
:100E400000180258001C02580020025800240258C2
:100E50000069084000D00120704742694A40426161
:100E60007047000002488168027811448160704731
:100E700018000024032010B500F02CF80F20FFF616
:100E800077FE08B1012010BD00F002F8002010BD6F
:100E9000704700000E4BF0B41B68C3F30223C3F18C
:100EA0000704042C00D904241D1D072D01D20023A2
:100EB00000E0DB1E012606FA04F56D1E0D409D4084
:100EC0009E40761E164045EA0601F0BC00F0A4BF25
:100ED0000CED00E0064A00F0070110684FF6FF0332
:100EE000184040EA012003490843106070470000A1
:100EF0000CED00E00000FA05364930B50A680968D3
:100F000012F00302344BC1F305311B68334C03F07C
:100F100010032468DFED320AB7EE001AC4F3CC04E4
:100F200014FB03F300EE103A2E4BB8EE400A07D044
:100F30002D4C012A01D0022A4AD0B4FBF1F10BE07A
:100F4000244C283C22689506284A03D52468C4F31B
:100F5000C104E240B2FBF1F101EE901A1968B8EE5B
:100F6000612AC1F3080101EE901A1968F8EE611ABE
:100F700040EE201A31EE810A22EE000AC1F346212A
:100F8000491C00EE901AF8EE600A80EE201AFCEE82
:100F9000C10AC0ED000A1968C1F30641491C00EE00
:100FA000901AF8EE600A80EE201AFCEEC10AC0ED3D
:100FB000010A1968C1F30661491C00EE901AF8EEA7
:100FC000600A80EE201ABCEEC10A80ED020A30BD34
:100FD000074ABFE7284402582C4402583C440258B0
:100FE000000000393844025800093D000090D00349
:100FF00040787D0110B5FFF6F9FD08490968012226
:1010000092FAA2F201F00F01B2FA82F2D140044A40
:10101000515CC8400349086010BD000018440258E4
:10102000FC3000080800002410B5FFF7E3FF074973
:1010300009684FF4807292FAA2F201F4E061B2FA08
:1010400082F2D140024A515CC84010BD1C44025893
:10105000FC3000083548F0B50068364D10F0380116
:10106000334809D00411082904D0334E10290BD07D
:1010700018290BD02046F0BD29688906FBD52968C0
:10108000C1F3C101C840F0BD3046F0BD2749183159
:101090000A68096812F00302284BC1F305111B68A6
:1010A000274F03F001033F68DFED260AB7EE001A71
:1010B000C7F3CC0717FB03F300EE103A224BB8EE50
:1010C000400A06D0012A01D0022A2BD0B4FBF1F04D
:1010D00008E02A68920603D52A68C2F3C102D0400C
:1010E000B0FBF1F001EE900A1868B8EE612AC0F387
:1010F000080001EE900A1868F8EE611A40EE201A16
:1011000031EE810A22EE000AC0F34620401C00EEB8
:10111000900AF8EE600A80EE201ABCEEC10A10EECA
:10112000100AF0BDB6FBF1F0DCE7000010440258F5
:101130000090D0030044025840787D012C440258AE
:101140003444025800000039304402584FF0E02186
:101150000428086903D020F004000861704740F0BB
:101160000400FAE7704710B5040003D094F83D007E
:1011700010B107E0012010BD002084F83C0020469B
:1011800000F7A0FD022084F83D002068211D00F03A
:101190009FFA012084F83D00002010BD704770B513
:1011A0000446006801694FF00005C943890715D45A
:1011B000C168C943890711D4E91E01610120207764
:1011C000206880698007204602D0FFF7E7FF04E02F
:1011D00000F7A2FD204600F0A2F8257720680169FB
:1011E000C943490717D4C168C943490713D46FF0ED
:1011F00004010161022020772068806910F4407F9B
:10120000204602D0FFF7CAFF04E000F785FD204624
:1012100000F085F8257720680169C943090716D4CD
:10122000C168C943090712D46FF0080101610420A5
:1012300020772068C0698007204602D0FFF7AEFF04
:1012400004E000F769FD204600F069F82577206882
:101250000169C943C90617D4C168C943C90613D473
:101260006FF010010161082020772068C06910F438
:10127000407F204602D0FFF791FF04E000F74CFDCD
:10128000204600F04CF8257720680169C943C9075A
:1012900008D1C168C943C90704D1891E016120462C
:1012A00000F03EF8206801696FF08005C943090627
:1012B00007D4C168C943090603D405612046FFF776
:1012C00051FF20680169C943C90507D4C168C943F2
:1012D000090603D405612046FFF744FF2068016931
:1012E000C943490609D4C168C943490605D46FF00A
:1012F00040010161204600F710FD20680169C943E3
:1013000089060BD4C168C943890607D46FF0200150
:1013100001612046BDE8704000F7D2BC70BD704747
:101320000A4910B588420FD109490120094C0870BB
:101330002068401C2060192806D107484FF48041DE
:10134000FFF78BFD0020206010BD0000C0020024CC
:1013500000000024240000240010025890F87910A6
:1013600090F87A000843704710B5040003D094F851
:10137000790010B107E0012010BD002084F878004A
:10138000204600F78DFD242084F87900206801684C
:1013900021F001010160204600F06EFA0128EBD037
:1013A000606B10B1204600F7F9FE2068416821F417
:1013B000904141602068816821F02A0181602068A5
:1013C000016841F0010101602046BDE8104000F0D5
:1013D000DFB970470C4800B587B0016841F01001D3
:1013E00001600068694600F0100005904FF4E0507D
:1013F00000900020019001200290032003900348F8
:10140000FFF732FC07B000BDE0440258001002585C
:101410002DE9F041204C4FF4806529462046FFF726
:1014200017FD6E00AF0048B131462046FFF710FDB2
:1014300020B139462046FFF70BFD88B9142001F78B
:1014400033F829462046FFF703FD60B131462046B8
:10145000FFF7FEFC78B139462046FFF7F9FC90B162
:101460000020BDE8F08129462046FFF7F1FC002866
:10147000F9D00120F5E731462046FFF7E9FC0028C6
:10148000F9D00220EDE739462046FFF7E1FC0028BD
:10149000F9D00320E5E7000000100258144810B509
:1014A00086B0016841F01001016000686946114C86
:1014B00000F0100005904FF4604000900120019072
:1014C0000290032003902046FFF7CEFB0122204626
:1014D0005103FFF642FB012220469103FFF63DFB3C
:1014E00001222046D103FFF638FB06B010BD0000F4
:1014F000E044025800100258704700002DE9F04700
:10150000DFF8E48004460F464FF00009D8F80000E9
:10151000C043800709D0344D283D286820F0805012
:101520002860FFF61FFB064607E00120BDE8F087B4
:10153000FFF618FB801B02284ED828688000F7D4DD
:10154000D8F80010228821F07C7141EA0251C8F8D5
:101550000010207A4FF4FE02A1884002491EA0F537
:10156000007080B2C1F308010843A189491E02EA54
:1015700001410843217C1202491E02EA016108432D
:101580001949183108601848001D0168626921F482
:101590004061114301600168A26921F400711143A7
:1015A00001606FB10168012F0ED041F080710160C0
:1015B000286840F080502860FFF6D4FA04460DE019
:1015C000016841F48001F2E741F40001EFE7FFF622
:1015D000C9FA001B022801D90320A7E72868800068
:1015E000F5D54846A2E7000028440258704700009D
:1015F00070B5274C9CB0256825F004052560244C67
:1016000000260C34256845F440452560256805F41E
:1016100040451B952568AD04FCD5012400940CAD14
:1016200003962404019402240994CDE90A41079603
:10163000082485E80D00CDE91046684600F7DEF87D
:1016400000B1FEE73F2013900320CDE914064020AF
:101650000101CDE91640CDE9180150201A90022170
:1016600013A8FFF6C9FF00B1FEE70A48016841F080
:10167000800101600748F430016841F00201016017
:10168000006800F002001B90FFF634F91CB070BD3A
:101690000C480258004402580148FFF780BD000082
:1016A000C0020024094A084B10B5C2E900310021EC
:1016B000C2E9021010461161FFF755FDBDE8104068
:1016C000024800F71DBB000000040040C0020024D7
:1016D0002DE9F04702884FF0804A254C254D264ED3
:1016E000A042264F264B09D0504507D0A84205D02E
:1016F000B04203D0B84201D0984204D122F0700C1D
:101700004A6842EA0C02DFF87CC0DFF87C80A04225
:10171000DFF878900FD050450DD0A8420BD0B042E2
:1017200009D0B84207D0984205D0604503D0404563
:1017300001D0484503D122F44075CA682A438D8AF6
:1017400022F080022A4302808A68C2620A880285E7
:10175000A04207D0984205D0604503D0404501D053
:10176000484501D1098A018601214161BDE8F08720
:10177000000001400004004000080040000C004050
:101780000004014000400140004401400048014085
:10179000F8B500250446C567FFF6E4F9074620685A
:1017A00000686FF07E46000708D500223B464FF4E4
:1017B00000112046009600F0B3FA60B92068006876
:1017C00040070AD500223B464FF480012046009690
:1017D00000F0A6FA08B10320F8BD202084F87900B3
:1017E00084F87A00002084F87850F8BD10B5806B3A
:1017F0000021A0F86A10A0F8621000F790FA10BD5E
:1018000010B5B0F86C2090F87A300168222B05D022
:10181000088B40F008000883022010BD898C836883
:10182000B3F5805F01D103696BB11140426E531C67
:1018300043661170B0F86A10491E0904090CA0F83B
:101840006A1007D015E0436E11401980416E891C63
:101850004166EFE701680A6822F490720A60016845
:101860008A6822F001028A60202180F87A1000F74D
:10187000ABFB002010BD00002DE9F04F04460068CE
:101880008025FD4B0021D4F810C087B0A6680F4614
:10189000D4F81C8046EA0C06D4F814C0A26A4CEABC
:1018A000080C46EA0C0632430668DFF8D0C306EAA5
:1018B0000C061643066020684268E66822F440522F
:1018C000324342602268A0699A4201D0266A3043BE
:1018D000A66AB6F1005F04D1D4E90B6C46EA0C06A7
:1018E00030439668DFF898C306EA0C060643966014
:1018F0002068C26A666A22F00F023243C262E14E79
:101900002068E14AB04210D1126802F03802182A69
:1019100074D005DCCAB3082A7AD0102A47D179E0FE
:10192000202A7BD0282A7CD17AE0D84EB04209D137
:10193000126802F00702062A73D2DFE802F0536948
:101940006B6D6F71D24EB04209D1126802F007027E
:10195000062A66D2DFE802F0465C5E606264CD4E25
:10196000B04209D1126802F00702062A59D2DFE814
:1019700002F0394F51535557C74EB0420BD1126840
:1019800002F00702062A4CD200E00EE0DFE802F087
:101990002A4042444648C14EB04209D1126802F082
:1019A0003802182A38D0BBDCB4E74FF0010538E024
:1019B000BB4EB04209D1126802F00702062A30D2AB
:1019C000DFE802F01026282A2C2EB64EB0420BD1AA
:1019D000126802F00702062A23D2DFE802F0031998
:1019E0001B1D1F2100251CE098421AD1A64A121D7A
:1019F000126802F00702062A13D202E00CE007E0A8
:101A00000CE0DFE802F0030507090B0D022508E0F2
:101A1000042506E0402504E0082502E0102500E04A
:101A20002025DFF864B2A04E9842DFF880A2ABF127
:101A3000540B73D1102D31D006DC022D09D0042DAA
:101A40000AD0082D2FD111E0202D29D0402D2AD1E8
:101A500007E0FFF6E5F813E06846FFF74DFA019856
:101A60000EE003A8FFF6F2F8049809E0DBF8001096
:101A70005846890610D50068C0F3C1012AFA01F062
:101A8000002811D06168894601EB410181420AD8E2
:101A9000B0EB093F07D808E05046F3E78448F1E788
:101AA0004FF40040EEE7012733E1102D4FF000081E
:101AB0004ED006DC022D0FD0042D15D0082D04D1F8
:101AC0002DE0202D4AD0402D13D00127794AA0F5D2
:101AD0004071914270D9E6E7FFF6A2F8626A0023EE
:101AE000414636F812200DE06846FFF705FA0198E6
:101AF00003E003A8FFF6AAF804980023616A36F809
:101B000011201946FEF6D2FB62680902030241EA7F
:101B100010615008181841EB080115E032E0DBF8BD
:101B200000105846890609D500680023C0F3C1019A
:101B30002AFA01F0616A36F8112015E0606A002384
:101B400036F8102050460FE00023FEF6AFFBBDE74D
:101B5000606A002336F81020554805E0606A0023CB
:101B600036F810204FF400400021FEF69FFB0902DA
:101B7000020241EA10614FEA590010184A4641EB4F
:101B80000801E1E7E3694FF4004293424DD1082D8B
:101B900023D005DC8DB1012D12D0042D06D112E029
:101BA000102D35D0202D3AD0402D11D0012721F015
:101BB0000F00C1F3420108435AE0FFF609FE16E0A8
:101BC000FFF732FA13E06846FFF796F901980EE046
:101BD00003A8FFF63BF8049809E0DBF8001058462C
:101BE000890608D50068C0F3C1012AFA01F0616ACC
:101BF00036F8111010E0606A36F81010BAFBF1F0F8
:101C00004100606801EB5001B1FBF0F081B2CEE71A
:101C1000606A36F810102648B0FBF1F0F0E7606A11
:101C200036F81000B2FBF0F0EAE7082D4AD00ADCE3
:101C30000DB3012D43D0042D7FF44DAF6846FFF75F
:101C40005BF9019809E0102D52D0202D55D0402D80
:101C5000F2D103A8FEF6FAFF0498616A36F8111073
:101C6000B0FBF1F1606801EB5001B1FBF0F080B224
:101C70002168C8604DE01FE0000C0058F369FFCFF9
:101C8000FFF4FF110010014054440258004400408A
:101C900000480040004C004000500040001401404B
:101CA00000780040007C0040203010080090D003F5
:101CB00000093D00FFFC0F00FFF68AFDCDE7FFF7AE
:101CC000B3F9CAE7DBF80020594692060AD509683D
:101CD000C1F3C1022AFA02F1626A36F81220B1FB9E
:101CE000F2F20FE0616A36F81120BAFBF2F209E075
:101CF000616A36F811200949F1E7616A36F8111076
:101D0000B2FBF1F2616802EB5102B2FBF1F189B270
:101D1000C16007B03846BDE8F08F000000093D0003
:101D20002DE9F0411E46174688460446069D1CE0F4
:101D3000681C1AD025B1FEF615FF801BA84214D9E5
:101D40002068016821F4D07101602068816821F069
:101D500001018160202084F8790084F87A00002055
:101D600084F878000320BDE8F0812068C16938EA72
:101D7000010004D00020B842DAD00020F3E70120AF
:101D8000F9E7000070B50D4D00240D48FFF6C8FFBF
:101D900002E0641CAC4204D80948FFF7DFFA2028AF
:101DA000F7D1002402E0641CAC4206D805490122A8
:101DB000034800F7B5F80028F5D170BDFFFF01001A
:101DC00058010024100000240FB4054B10B503A9DE
:101DD000044A029800F086FD10BC5DF814FB000078
:101DE000112500081400002403B401984100009854
:101DF00050EAC12018BF04204A0D18BF40F001006E
:101E000040F2FF72B2EB515F08BF40F002000128C0
:101E100008BF052002B070470907090E002804DB3F
:101E200000F1E02080F80014704700F00F0000F18E
:101E3000E02080F8141D70472DE9F04D2DED040BC6
:101E40002DED0A8B9AB0DDE92550279CDDF890A096
:101E500025F0004624F00048BAF1000F14BF01211C
:101E6000002101EB4502F84953184A1093422AD346
:101E7000002814BF0123002303EB44030B44F34960
:101E80008B4220D358EA00019FEDF19B72D0DFF81E
:101E9000C8B35D4503D1BAF1000F05D184E0BAF1B2
:101EA000000F08BF002100D0012101EB450111F511
:101EB000001F08D8002814BF0121002101EB4401B4
:101EC00011F5001F0BD99DED261B9DED240B1AB0BB
:101ED000BDEC0A8B04B0BDE8F04D00F789BA0027CD
:101EE000002DBCBFDD49884521DADD498845A8BF02
:101EF00002271CDAC3451ADCDA4901EB2851142900
:101F000008DDC1F1340220FA02F101FA02F2824244
:101F10000DD108E058B9C1F1140228FA02F101FA12
:101F200002F2424503D101F00101C1F1020756EA74
:101F30000A0120D1002C1EDA002D18BF022F01D07B
:101F4000012F0AD0022000F773FA1AB0BDEC0A8BF9
:101F500004B0BDE8F04D00F73BBA022000F768FA84
:101F600000F736FAB1EE400B1AB0BDEC0A8B04B0A4
:101F7000BDE8F08D18E09FEDBCAB9FEDBD8B002858
:101F80007DD1B64880451CD105F1804010F5801008
:101F900008BFBAF1000F07D0B34508DC002CA8BF7A
:101FA0009DED260BE0DA07E0B0EE490BDCE7002CF4
:101FB000B8BF9DED260BD5DBAF48784490ED000B04
:101FC000D2E7D84548D1002C43DA2EB186423AD127
:101FD000BAF1000F3DD126E0BAF1000F13D0022074
:101FE00000F726FA00F708FA8DED020B9DED240BA1
:101FF0008DED000B10EE900A039961F31E00039023
:102000009DED020BB0E78DED02AB9DED240B1AEEBA
:10201000901A10EE900A8DED000B61F31E000390F4
:102020009DED020BA0E78DED028B9DED240B18EECC
:10203000901A10EE900A8DED000B61F31E000390D4
:102040009DED020B90E704DA9DED241B89EE010B58
:102050008AE79DED240B87E786421ADAB4F1804FB8
:1020600004BF9DED240B20EE000B3FF47DAFA4F1E7
:102070000050B0F1FF500CD1002D0ADB00E008E069
:102080009DED240B51EC100B00F7CEFF41EC100B33
:102090006AE79DED240B51EC100B00F72DFABAF115
:1020A000000FCDE90E0140D19FED750B46B3A6F1AF
:1020B000E040B0F17F600ED05E4536D1002D00DAF1
:1020C00097B3022F0CBF01204FF0FF3000EE100A33
:1020D000B8EEC00B48E7002D01DD002C0DDA002D15
:1020E00001DD002C1DDB002D14DA002C12DB012F8A
:1020F00008BF9FED650B3FF437AFB0EE4A0B33E7F7
:10210000022F18BF002D0CD0012F0AD1002DFFF691
:102110002BAF06E0002DB8BF002C06DA012F3FF4EC
:1021200023AFB0EE480B1FE719E0012000EBE5708C
:1021300050EA070113D0791EB0EE498B084308BF5F
:102140009FED538B5448002580457ADD5349544810
:10215000884514DDB0420DDB002C19DB2CE001209A
:1021600000F766F91AB0BDEC0A8B04B0BDE8F04D7B
:1021700000F0DEBAB34502DC002C09DC1CE086422C
:1021800002DA002C18DA03E05E4528DD002C13DDAE
:10219000022000F74DF900F72FF98DED020B28EE24
:1021A0000A0B8DED000B10EE900A039961F31E00EF
:1021B00003909DED020BD7E6022000F739F900F0FD
:1021C000C3FA10EE901A18EE900A8DED020B8DED09
:1021D000008B61F31E0003909DED020BC4E69DEDA4
:1021E0000E0B9FED313B30EE490B8DED040B20EED5
:1021F000002B9DED041B9FED2E0B01EE430B9DED7F
:10220000043B9FED2D1B03EE401B9DED040B9FED4A
:102210002E3B22EE012B9FED2A1B20EE011B20EE10
:10222000030B9FED2B3B02EE430B31EE002B8DEDAC
:10223000022B02959DED022B32EE411B30EE411B2D
:1022400021E149E000000000FFFF1F00FFFF0F0039
:10225000000000000000F03F0000F03F0000F07FB1
:102260000000404301FCFFFF000000000000F07F81
:1022700000000000000000002A1100000000000023
:102280000000000000000080000000000000F0FFDF
:10229000000000000000F0BF0000E0410000F0433B
:1022A000FFFFEF3F00000000000000000000D03FF3
:1022B000555555555555D53F000000000000E03FED
:1022C000000000604715F73F44DF5DF80BAE543E59
:1022D000FE822B654715F73F0020B6F5801F0BDA0D
:1022E0009DED0E0B9FEDEC1B6FF0340020EE010B0B
:1022F00010EE906A8DED0E0BE94A00EB2650C6F306
:102300001301A0F2FF3741F07F6040F0405091424E
:10231000D8BF002408DDE34A8A42C8BF012403DC99
:102320000024A0F580107F1CDF49794401EBC40133
:102330000F9091ED001B9DED0E2B9DED0E0BDB49DB
:1023400031EE023B30EE410B89EE032B20EE02AB67
:102350008DED02AB7944029591ED003B4FF00051B9
:1023600041EA600000EB84408DED043B00F5002065
:1023700005909DED043B9DED044B2AEE0ACB33EE18
:10238000411B9DED0E3BCA48062133EE411B9DEDDE
:10239000023B03EE440B03EE410B20EE02BBB0EE1A
:1023A0004C0B7844FFF6DAFF2CEE0C1B20EE010BF1
:1023B0009DED021B31EE0A1B0BEE010B9DED021B86
:1023C00021EE011B9FEDBC2B31EE023B33EE003BB7
:1023D0008DED043B04959DED043B33EE422B32EE34
:1023E000411B30EE412B9DED020B9DED041B20EEB9
:1023F000011B9DED040B2BEE000B02EE0A0B31EEE0
:10240000002B8DED022B02959DED022B32EE411B30
:1024100030EE410B9DED021B9FEDA92B21EE021B1F
:102420009DED022B9FEDA83B22EE032B9FEDA83BD9
:10243000A94800EE032B784400EBC40090ED000B9C
:10244000A64832EE000B02EE107AB8EEC22B8DEDEC
:10245000042B31EE003B784400EBC4009DED044BAF
:1024600090ED002B33EE023B33EE043B8DED023B4F
:1024700002959DED023B33EE443B33EE422B32EEB0
:10248000411B30EE411B9DED260B954A8DED000B57
:1024900000959DED260B9DED002B30EE420B9DED42
:1024A000022B20EE020B9DED262B02EE010B9DED83
:1024B000001B9DED022B21EE021B8DED021B30EE69
:1024C000011B11EE900A11EE101A8DED001B9042C7
:1024D00024DB821A11430ED19FED831B9DED002B4F
:1024E0009DED023B30EE011B32EE432BB4EEC21BDE
:1024F000F1EE10FA26DD0220FFF69AFFFFF67CFFD0
:1025000010EE901A18EE900A8DED020B8DED008BF7
:1025100061F31E0003909DED020B25E5744B20F046
:1025200000429A420ED3734A024411437FF444AEF0
:102530009DED022B31EE421BB4EEC01BF1EE10FA02
:10254000BFF63AAE20F000416B4A6C4B002402EB20
:1025500021529942D8BF9DED021B27DD511C4FF43B
:10256000801222FA01F10144654BC1F30A527B4407
:10257000A2F2FF3293ED001B624B8DED041BD340A2
:1025800021EA0303C1F3130141F48011C2F11402E3
:1025900021FA02F405930028B8BF64429DED021BA6
:1025A0009DED042B31EE421B8DED021B30EE011B25
:1025B0008DED041B04959DED041B9FED532B9DEDAC
:1025C000023B21EE021B9DED042B32EE432B30EE3D
:1025D000420B9FED4F2B20EE020B9DED042B9FED48
:1025E0004E3B4F48052102EE030B31EE002B8DEDE3
:1025F000002B32EE411B30EE41AB9DED000B20EE87
:10260000000B8DED040B7844FFF6A8FE9DED001B3A
:102610009DED042B02EE401B8DED021B9DED000B8A
:1026200020EE010B9FED402B31EE422B80EE021B82
:102630009DED002BB0EE4A0B02EE0A0B31EE400B83
:102640009DED001B30EE410B39EE400B10EE900A71
:102650008DED000B00EB045001150029C8BF01905F
:1026600013DC224651EC100BFDF774FEFFF7BCFBA8
:10267000042808BF00F068F822469DED000B51ECDD
:10268000100BFDF767FECDE900019DED000B28EE74
:10269000000B69E40000000000000000000040435F
:1026A0008E9803007AB60B00320D0000900D0000EA
:1026B000EA0C0000000000000000000000000840DC
:1026C000000000E009C7EE3FF5015B14E02F3EBEBD
:1026D000FD033ADC09C7EE3F460C0000160C000073
:1026E0000000904000000000FE822B654715973CDB
:1026F00000CC904000346F3F01FCFFFF0000E03F42
:10270000760B0000FFFF0F0000000000432EE63FA5
:10271000EF39FAFE422EE63F396CA80C615C20BE10
:10272000B60A0000000000000000000000000040A9
:102730009FED031B81EE010B7047000000000000BD
:1027400000000000000000009FED030B20EE000BD6
:1027500070470000000000000000000000000010B2
:102760002DE9FF5F82B00021DDE90430020DDDF8C4
:1027700040B0034318D044F61050A2F2FF32424357
:102780001514119801281FD0A5EB0B00401C5FEA1F
:10279000000A4FF000064E4FDFF83891B046504621
:1027A00015D5CAF1000413E0119801244AA30128A9
:1027B00001D16FEA0B010298119AC0E90031C0E91A
:1027C000024206B0BDE8F09FCBF10000DFE704460F
:1027D0000021404A491842EB0450CDE9001012E0B4
:1027E000E00707D032463B4640464946FDF6B4FD79
:1027F0008046894632463B4610461946FDF6ACFDFA
:1028000006460F466410002CEAD1DDE90401DDE93B
:102810000023BAF1000F06DAFDF69EFD42464B4654
:10282000FDF69AFD05E0FDF726FD42464B46FDF715
:1028300022FD04460E460022284BFDF7A3FD03D8D7
:102840004FF0FF30014607E00022254B204631467D
:10285000FDF76AFCFDF6F2FD102409E0002C0ADB0E
:102860000A220023FDF622FD039B30321A55641E16
:1028700050EA0102F2D1641C039AC4F1110314441A
:10288000119A012A03D0012208430DD10AE008431E
:1028900004D000204FF0110B119072E7A3EB0B0551
:1028A0006D1E0DE05B4504DD4FF0000205F10105F2
:1028B00004E003DA4FF00002A5F10105002AECD094
:1028C00002981199C0E90231C0E9004579E700009A
:1028D000000014400000F03F300000000000F04312
:1028E0000000E03F2DE9FF4F95B09B468946064624
:1028F00000250FE2252877D100242746F84A012138
:10290000059400E0044316F8013F203B01FA03F070
:102910001042F7D130782A2811D06FF02F03307889
:10292000A0F13002092A16D8059A44F0020402EBFD
:10293000820203EB42021044761C0590EFE759F83F
:10294000042B0592002A03DA504244F40054059007
:1029500044F00204761C30782E2816D116F8010FA8
:1029600044F004042A280DD06FF02F023078A0F133
:102970003003092B09D807EB870302EB4303C71881
